{
  "contractName": "Government",
  "abi": [
    {
      "constant": false,
      "inputs": [
        {
          "name": "_address",
          "type": "address"
        },
        {
          "name": "firstName",
          "type": "string"
        },
        {
          "name": "lastName",
          "type": "string"
        },
        {
          "name": "dateOfBirth",
          "type": "string"
        },
        {
          "name": "password",
          "type": "string"
        }
      ],
      "name": "collectContribution",
      "outputs": [
        {
          "name": "_contribution",
          "type": "uint256"
        }
      ],
      "payable": false,
      "stateMutability": "nonpayable",
      "type": "function"
    },
    {
      "constant": true,
      "inputs": [
        {
          "name": "",
          "type": "uint256"
        }
      ],
      "name": "acceptedTokens",
      "outputs": [
        {
          "name": "",
          "type": "address"
        }
      ],
      "payable": false,
      "stateMutability": "view",
      "type": "function"
    },
    {
      "constant": true,
      "inputs": [
        {
          "name": "",
          "type": "address"
        }
      ],
      "name": "immigrantRegistry",
      "outputs": [
        {
          "name": "",
          "type": "address"
        }
      ],
      "payable": false,
      "stateMutability": "view",
      "type": "function"
    },
    {
      "constant": false,
      "inputs": [
        {
          "name": "immigrantWallet",
          "type": "address"
        }
      ],
      "name": "invite",
      "outputs": [
        {
          "name": "",
          "type": "bool"
        }
      ],
      "payable": false,
      "stateMutability": "nonpayable",
      "type": "function"
    },
    {
      "constant": false,
      "inputs": [
        {
          "name": "withdrawTo",
          "type": "address"
        }
      ],
      "name": "withdrawETH",
      "outputs": [
        {
          "name": "",
          "type": "bool"
        }
      ],
      "payable": false,
      "stateMutability": "nonpayable",
      "type": "function"
    },
    {
      "constant": false,
      "inputs": [
        {
          "name": "_occupation",
          "type": "uint64"
        },
        {
          "name": "_age",
          "type": "uint64"
        },
        {
          "name": "_income",
          "type": "uint128"
        },
        {
          "name": "_dataHash",
          "type": "bytes32"
        }
      ],
      "name": "register",
      "outputs": [
        {
          "name": "",
          "type": "address"
        }
      ],
      "payable": false,
      "stateMutability": "nonpayable",
      "type": "function"
    },
    {
      "constant": true,
      "inputs": [],
      "name": "owner",
      "outputs": [
        {
          "name": "",
          "type": "address"
        }
      ],
      "payable": false,
      "stateMutability": "view",
      "type": "function"
    },
    {
      "constant": false,
      "inputs": [
        {
          "name": "tokenAddress",
          "type": "address"
        },
        {
          "name": "withdrawTo",
          "type": "address"
        }
      ],
      "name": "withdrawTokens",
      "outputs": [],
      "payable": false,
      "stateMutability": "nonpayable",
      "type": "function"
    },
    {
      "constant": true,
      "inputs": [
        {
          "name": "firstName",
          "type": "string"
        },
        {
          "name": "lastName",
          "type": "string"
        },
        {
          "name": "dateOfBirth",
          "type": "string"
        },
        {
          "name": "password",
          "type": "string"
        }
      ],
      "name": "createHash",
      "outputs": [
        {
          "name": "hash",
          "type": "bytes32"
        }
      ],
      "payable": false,
      "stateMutability": "pure",
      "type": "function"
    },
    {
      "constant": false,
      "inputs": [
        {
          "name": "immigrantWallet",
          "type": "address"
        },
        {
          "name": "accepted",
          "type": "bool"
        }
      ],
      "name": "makeDecision",
      "outputs": [],
      "payable": false,
      "stateMutability": "nonpayable",
      "type": "function"
    },
    {
      "inputs": [
        {
          "name": "_acceptedTokens",
          "type": "address[]"
        }
      ],
      "payable": false,
      "stateMutability": "nonpayable",
      "type": "constructor"
    },
    {
      "anonymous": false,
      "inputs": [
        {
          "indexed": true,
          "name": "occupation",
          "type": "uint256"
        },
        {
          "indexed": true,
          "name": "age",
          "type": "uint256"
        },
        {
          "indexed": true,
          "name": "income",
          "type": "uint256"
        },
        {
          "indexed": false,
          "name": "dataHash",
          "type": "bytes32"
        },
        {
          "indexed": false,
          "name": "immigrantAddress",
          "type": "address"
        },
        {
          "indexed": false,
          "name": "immigrantContractAddress",
          "type": "address"
        }
      ],
      "name": "LogImmigrantRegistration",
      "type": "event"
    },
    {
      "anonymous": false,
      "inputs": [
        {
          "indexed": true,
          "name": "immigrantWallet",
          "type": "address"
        }
      ],
      "name": "LogInvitation",
      "type": "event"
    },
    {
      "anonymous": false,
      "inputs": [
        {
          "indexed": true,
          "name": "immigrant",
          "type": "address"
        },
        {
          "indexed": true,
          "name": "wasAccepted",
          "type": "bool"
        }
      ],
      "name": "LogGovernmentDecision",
      "type": "event"
    },
    {
      "anonymous": false,
      "inputs": [
        {
          "indexed": true,
          "name": "immigrant",
          "type": "address"
        },
        {
          "indexed": true,
          "name": "amountCollected",
          "type": "uint256"
        }
      ],
      "name": "LogGovernmentCollection",
      "type": "event"
    },
    {
      "anonymous": false,
      "inputs": [
        {
          "indexed": true,
          "name": "tokenAddress",
          "type": "address"
        },
        {
          "indexed": true,
          "name": "immigrant",
          "type": "address"
        },
        {
          "indexed": true,
          "name": "amountCollected",
          "type": "uint256"
        }
      ],
      "name": "LogTokenCollection",
      "type": "event"
    }
  ],
  "bytecode": "0x6060604052341561000f57600080fd5b6040516114973803806114978339810160405280805160008054600160a060020a033316600160a060020a031991821681179092556001805490911690911790559091019050600581511061006357600080fd5b600281805161007692916020019061007d565b505061010b565b8280548282559060005260206000209081019282156100d4579160200282015b828111156100d45782518254600160a060020a031916600160a060020a03919091161782556020929092019160019091019061009d565b506100e09291506100e4565b5090565b61010891905b808211156100e0578054600160a060020a03191681556001016100ea565b90565b61137d8061011a6000396000f300606060405236156100885763ffffffff60e060020a600035041663013bc297811461008d57806336c87754146101c45780633e7c4684146101f65780634b77c46814610215578063690d8320146102485780637e98ed3e146102675780638da5cb5b146102a5578063a522ad25146102b8578063d6c35bed146102df578063dce835b8146103f6575b600080fd5b341561009857600080fd5b6101b260048035600160a060020a03169060446024803590810190830135806020601f8201819004810201604051908101604052818152929190602084018383808284378201915050505050509190803590602001908201803590602001908080601f01602080910402602001604051908101604052818152929190602084018383808284378201915050505050509190803590602001908201803590602001908080601f01602080910402602001604051908101604052818152929190602084018383808284378201915050505050509190803590602001908201803590602001908080601f01602080910402602001604051908101604052818152929190602084018383808284375094965061041a95505050505050565b60405190815260200160405180910390f35b34156101cf57600080fd5b6101da60043561054d565b604051600160a060020a03909116815260200160405180910390f35b341561020157600080fd5b6101da600160a060020a0360043516610575565b341561022057600080fd5b610234600160a060020a0360043516610590565b604051901515815260200160405180910390f35b341561025357600080fd5b610234600160a060020a0360043516610668565b341561027257600080fd5b6101da67ffffffffffffffff600435811690602435166fffffffffffffffffffffffffffffffff604435166064356106cb565b34156102b057600080fd5b6101da61084f565b34156102c357600080fd5b6102dd600160a060020a036004358116906024351661085e565b005b34156102ea57600080fd5b6101b260046024813581810190830135806020601f8201819004810201604051908101604052818152929190602084018383808284378201915050505050509190803590602001908201803590602001908080601f01602080910402602001604051908101604052818152929190602084018383808284378201915050505050509190803590602001908201803590602001908080601f01602080910402602001604051908101604052818152929190602084018383808284378201915050505050509190803590602001908201803590602001908080601f01602080910402602001604051908101604052818152929190602084018383808284375094965061096395505050505050565b341561040157600080fd5b6102dd600160a060020a03600435166024351515610ab5565b60008060008061042c88888888610963565b600160a060020a03808b16600090815260036020526040808220549396509290911691631b3012a3919051602001526040518163ffffffff1660e060020a028152600401602060405180830381600087803b151561048957600080fd5b6102c65a03f1151561049a57600080fd5b5050506040518051600160a060020a03808c1660009081526003602052604090205491945016319150508282141561054157600160a060020a03808a166000908152600360205260408082205490921691633ea0fbcf919051602001526040518163ffffffff1660e060020a028152600401602060405180830381600087803b151561052557600080fd5b6102c65a03f1151561053657600080fd5b505050604051805150505b98975050505050505050565b600280548290811061055b57fe5b600091825260209091200154600160a060020a0316905081565b600360205260009081526040902054600160a060020a031681565b60015460009033600160a060020a039081169116146105ae57600080fd5b600160a060020a0380831660009081526003602052604080822054909216916317c6d1e0919051602001526040518163ffffffff1660e060020a028152600401602060405180830381600087803b151561060757600080fd5b6102c65a03f1151561061857600080fd5b50505060405180519050151561062d57600080fd5b81600160a060020a03167fcae0bbafb5d75da57baaf27c8b6f3c79a02370d64a08e5179e2a715504e69a0960405160405180910390a2919050565b60015460009033600160a060020a0390811691161461068657600080fd5b81600160a060020a03166108fc30600160a060020a0316319081150290604051600060405180830381858888f1935050505015156106c357600080fd5b506001919050565b600154600090819033600160a060020a03908116911614156106ec57600080fd5b600160a060020a03338116600090815260036020526040902054161561071157600080fd5b338686868661071e610b7a565b600160a060020a03909516855267ffffffffffffffff9384166020860152919092166040808501919091526fffffffffffffffffffffffffffffffff9092166060840152608083015260a09091019051809103906000f080151561078157600080fd5b9050806003600033600160a060020a0316600160a060020a0316815260200190815260200160002060006101000a815481600160a060020a030219169083600160a060020a03160217905550836fffffffffffffffffffffffffffffffff168567ffffffffffffffff168767ffffffffffffffff167f1f20774566d3cd57f56ea2e9c41c515c8e293a9d97ba1a48de9ae6c132dd0963863386604051928352600160a060020a039182166020840152166040808301919091526060909101905180910390a495945050505050565b600154600160a060020a031681565b60015460009033600160a060020a0390811691161461087c57600080fd5b5081600160a060020a03811663a9059cbb83826370a082313060006040516020015260405160e060020a63ffffffff8416028152600160a060020a039091166004820152602401602060405180830381600087803b15156108dc57600080fd5b6102c65a03f115156108ed57600080fd5b5050506040518051905060006040516020015260405160e060020a63ffffffff8516028152600160a060020a0390921660048301526024820152604401602060405180830381600087803b151561094357600080fd5b6102c65a03f1151561095457600080fd5b50505060405180515050505050565b6000848484846040518085805190602001908083835b602083106109985780518252601f199092019160209182019101610979565b6001836020036101000a038019825116818451161790925250505091909101905084805190602001908083835b602083106109e45780518252601f1990920191602091820191016109c5565b6001836020036101000a038019825116818451161790925250505091909101905083805190602001908083835b60208310610a305780518252601f199092019160209182019101610a11565b6001836020036101000a038019825116818451161790925250505091909101905082805190602001908083835b60208310610a7c5780518252601f199092019160209182019101610a5d565b6001836020036101000a038019825116818451161790925250505091909101955060409450505050505180910390209050949350505050565b600160a060020a03808316600090815260036020526040808220549092169163d5309e90918491516020015260405160e060020a63ffffffff84160281529015156004820152602401602060405180830381600087803b1515610b1757600080fd5b6102c65a03f11515610b2857600080fd5b505050604051805190501515610b3d57600080fd5b80151582600160a060020a03167fa5cb742efb1f56c9e6c9989c572357a918259acb51aab312dcde12f40e4013f560405160405180910390a35050565b6040516107c780610b8b8339019056006060604052341561000f57600080fd5b60405160a0806107c7833981016040528080519190602001805191906020018051919060200180519190602001805160008054600160a060020a0319908116600160a060020a03998a16908117835560028054831633909b169a909a179099556001805490911690981790975560048054604060020a608060020a0319166801000000000000000067ffffffffffffffff988916021767ffffffffffffffff191695909616949094176001608060020a0390811670010000000000000000000000000000000094909116939093029290921790935550600355506005805460ff191690556106c490819061010390396000f300606060405236156100b45763ffffffff60e060020a60003504166309ce19d981146100fa57806317c6d1e0146101295780631b3012a314610150578063200d2ed214610175578063262a9dff146101ac5780632672f526146101dc5780633ea0fbcf146101ef578063690d8320146102025780636f5ad9991461022157806388b45046146102345780638da5cb5b1461026c578063a522ad251461027f578063d5309e90146102a6578063f9da1f25146102be575b7f370510fa7e8c74204b8d2fd52b7a0837e535ea0c1491fd4e13730ce825e405243334604051600160a060020a03909216825260208201526040908101905180910390a1005b341561010557600080fd5b61010d6102dd565b604051600160a060020a03909116815260200160405180910390f35b341561013457600080fd5b61013c6102ec565b604051901515815260200160405180910390f35b341561015b57600080fd5b61016361033b565b60405190815260200160405180910390f35b341561018057600080fd5b610188610341565b6040518082600381111561019857fe5b60ff16815260200191505060405180910390f35b34156101b757600080fd5b6101bf61034a565b60405167ffffffffffffffff909116815260200160405180910390f35b34156101e757600080fd5b61010d61035a565b34156101fa57600080fd5b61013c610369565b341561020d57600080fd5b61013c600160a060020a03600435166103c7565b341561022c57600080fd5b6101bf610428565b341561023f57600080fd5b610247610444565b6040516fffffffffffffffffffffffffffffffff909116815260200160405180910390f35b341561027757600080fd5b61010d610470565b341561028a57600080fd5b6102a4600160a060020a036004358116906024351661047f565b005b34156102b157600080fd5b61013c6004351515610582565b34156102c957600080fd5b61013c600160a060020a03600435166105ca565b600154600160a060020a031681565b60025460009033600160a060020a0390811691161461030a57600080fd5b600060055460ff16600381111561031d57fe5b1461032757600080fd5b506005805460ff1916600190811790915590565b60035481565b60055460ff1681565b60045467ffffffffffffffff1681565b600254600160a060020a031681565b6002546000907f370510fa7e8c74204b8d2fd52b7a0837e535ea0c1491fd4e13730ce825e4052490600160a060020a0390811690301631604051600160a060020a03909216825260208201526040908101905180910390a150600190565b6000805433600160a060020a039081169116146103e357600080fd5b81600160a060020a03166108fc30600160a060020a0316319081150290604051600060405180830381858888f19350505050151561042057600080fd5b506001919050565b60045468010000000000000000900467ffffffffffffffff1681565b60045470010000000000000000000000000000000090046fffffffffffffffffffffffffffffffff1681565b600054600160a060020a031681565b6000805433600160a060020a0390811691161461049b57600080fd5b5081600160a060020a03811663a9059cbb83826370a082313060006040516020015260405160e060020a63ffffffff8416028152600160a060020a039091166004820152602401602060405180830381600087803b15156104fb57600080fd5b6102c65a03f1151561050c57600080fd5b5050506040518051905060006040516020015260405160e060020a63ffffffff8516028152600160a060020a0390921660048301526024820152604401602060405180830381600087803b151561056257600080fd5b6102c65a03f1151561057357600080fd5b50505060405180515050505050565b60025460009033600160a060020a039081169116146105a057600080fd5b81156105b8576005805460ff191660021790556105c6565b6005805460ff191660031790555b5090565b600254600090819033600160a060020a039081169116146105ea57600080fd5b506002548290600160a060020a03908116906108fc9083166370a082313060006040516020015260405160e060020a63ffffffff8416028152600160a060020a039091166004820152602401602060405180830381600087803b151561064f57600080fd5b6102c65a03f1151561066057600080fd5b505050604051805190509081150290604051600060405180830381858888f19350505050151561068f57600080fd5b506001929150505600a165627a7a723058200e500165e1bf17d3d03b4bf352c8343e370fa70a2cf63bea673056c6ea2785b80029a165627a7a723058201e06ccaad18c922c93723308c5cf64b7850765a6748d1d54cc206b385c94225f0029",
  "source": "pragma solidity ^0.4.16;\nimport \"./ERC20.sol\";\nimport \"./Immigrant.sol\";\nimport \"./Wallet.sol\";\n\ncontract Government is Wallet {\n\t// Government public address that will own the contract and receive the funds at the end of the process\n\taddress public owner;\n\taddress[] public acceptedTokens;\n\tmapping(address => Immigrant) public immigrantRegistry;\n\n    function createHash(string firstName, string lastName, string dateOfBirth, string password) public pure returns (bytes32 hash) {\n        return keccak256(firstName, lastName, dateOfBirth, password);\n    }\n\n    function Government(address[] _acceptedTokens) Wallet(msg.sender) public {\n        owner = msg.sender;\n\n        //limit spending gas when withdrawing\n        require(_acceptedTokens.length < 5);\n        acceptedTokens = _acceptedTokens;\n    }\n\n\t// register/create new immigrant contract\n\tfunction register (uint64 _occupation, uint64 _age, uint128 _income, bytes32 _dataHash) public returns (address) {\n        // msg sender cannot be the government contract owner\n        require(msg.sender != owner);\n\n        // msg sender cannot already be registered\n        require(immigrantRegistry[msg.sender] == address(0));\n\n        Immigrant newImmigrant = new Immigrant(msg.sender, _occupation, _age, _income, _dataHash);\n\n        immigrantRegistry[msg.sender] = newImmigrant;\n\n        LogImmigrantRegistration(_occupation, _age, _income, _dataHash, msg.sender, newImmigrant);\n\n\t\treturn address(newImmigrant);\n\t}\n\n  function invite(address immigrantWallet) public onlyOwner returns (bool ){\n      require(immigrantRegistry[immigrantWallet].receiveGovernmentInvitation());\n\t\t\tLogInvitation(immigrantWallet);\n  }\n\n\tfunction makeDecision(address immigrantWallet, bool accepted) {\n\t\t\trequire(immigrantRegistry[immigrantWallet].receiveDecision(accepted));\n\t\t\tLogGovernmentDecision(immigrantWallet, accepted);\n\t}\n\n\tmodifier onlyOwner {\n\t    require(msg.sender == owner);\n\t    _;\n\t}\n\n\t//EVENTS\n  event LogImmigrantRegistration(uint indexed occupation, uint indexed age, uint indexed income, bytes32 dataHash, address immigrantAddress, address immigrantContractAddress);\n\n  event LogInvitation(address indexed immigrantWallet);\n\n\t// Log government decisions (accept/decline citizenship for the immigrant)\n\tevent LogGovernmentDecision(address indexed immigrant, bool indexed wasAccepted);\n\n\t// Log :moneybag: :moneybag: :moneybag:\n\tevent LogGovernmentCollection(address indexed immigrant, uint indexed amountCollected);\n\n  // Log :moneybag: :moneybag: :moneybag:\n  event LogTokenCollection(address indexed tokenAddress, address indexed immigrant, uint indexed amountCollected);\n\n\tfunction collectContribution(address _address, string firstName, string lastName, string dateOfBirth, string password) public returns (uint _contribution) {\n    // create a hash given the immigrant information and his secret\n\t\tbytes32 immigrantDataHash = createHash(firstName, lastName, dateOfBirth, password);\n\n    // the one the immigrant specified\n\t\tbytes32 storedDataHash = immigrantRegistry[_address].dataHash();\n\n    uint contribution = immigrantRegistry[_address].balance;\n\n\t\tif (storedDataHash == immigrantDataHash) {\n      // empty the immigrants wallet\n\t\t\timmigrantRegistry[_address].emptyAccountEth();\n      /*LogGovernmentCollection(_address, contribution);*/\n\n      /*for (uint token = 0; token < acceptedTokens.length; token++) {\n          immigrantRegistry[_address].emptyAccountToken(acceptedTokens[token]);\n      }*/\n\t\t}\n\n\t\treturn contribution;\n\t}\n\n}\n",
  "sourcePath": "/Users/gillianchu/Desktop/ethWaterloo/contracts/contracts/Government.sol",
  "schemaVersion": "1.0.0",
  "updatedAt": "2017-10-15T02:14:40.173Z"
}