{
  "contractName": "government",
  "abi": [
    {
      "constant": true,
      "inputs": [],
      "name": "currentState",
      "outputs": [
        {
          "name": "",
          "type": "uint8"
        }
      ],
      "payable": false,
      "stateMutability": "view",
      "type": "function"
    },
    {
      "constant": true,
      "inputs": [
        {
          "name": "_address",
          "type": "address"
        }
      ],
      "name": "queryContribution",
      "outputs": [
        {
          "name": "balance",
          "type": "uint256"
        }
      ],
      "payable": false,
      "stateMutability": "view",
      "type": "function"
    },
    {
      "constant": false,
      "inputs": [],
      "name": "immigrantWithdraw",
      "outputs": [
        {
          "name": "",
          "type": "bool"
        }
      ],
      "payable": false,
      "stateMutability": "nonpayable",
      "type": "function"
    },
    {
      "constant": false,
      "inputs": [],
      "name": "balance",
      "outputs": [
        {
          "name": "",
          "type": "uint256"
        }
      ],
      "payable": false,
      "stateMutability": "nonpayable",
      "type": "function"
    },
    {
      "constant": false,
      "inputs": [],
      "name": "Struct",
      "outputs": [],
      "payable": false,
      "stateMutability": "nonpayable",
      "type": "function"
    },
    {
      "constant": false,
      "inputs": [],
      "name": "contribute",
      "outputs": [
        {
          "name": "",
          "type": "bool"
        }
      ],
      "payable": true,
      "stateMutability": "payable",
      "type": "function"
    },
    {
      "constant": true,
      "inputs": [
        {
          "name": "",
          "type": "address"
        }
      ],
      "name": "structs",
      "outputs": [
        {
          "name": "",
          "type": "uint256"
        }
      ],
      "payable": false,
      "stateMutability": "view",
      "type": "function"
    },
    {
      "anonymous": false,
      "inputs": [
        {
          "indexed": false,
          "name": "_to",
          "type": "address"
        },
        {
          "indexed": false,
          "name": "_amount",
          "type": "uint256"
        }
      ],
      "name": "ContributionLog",
      "type": "event"
    }
  ],
  "bytecode": "0x6060604052341561000f57600080fd5b6101d48061001e6000396000f300606060405236156100805763ffffffff7c01000000000000000000000000000000000000000000000000000000006000350416630c3f6acf8114610085578063323b37e0146100bc57806392eaa31d146100fa578063b69ef8a814610121578063d5f6622514610134578063d7bb99ba14610105578063daaac44714610149575b600080fd5b341561009057600080fd5b610098610175565b604051808260038111156100a857fe5b60ff16815260200191505060405180910390f35b34156100c757600080fd5b6100e873ffffffffffffffffffffffffffffffffffffffff6004351661017e565b60405190815260200160405180910390f35b341561010557600080fd5b61010d610184565b604051901515815260200160405180910390f35b341561012c57600080fd5b6100e8610189565b341561013f57600080fd5b61014761018f565b005b341561015457600080fd5b6100e873ffffffffffffffffffffffffffffffffffffffff60043516610196565b60005460ff1681565b50600090565b600090565b60025490565b6000600255565b600160205260009081526040902054815600a165627a7a723058209f0f40229a09108df5ae10cd3826d39bc6b2c9ceb1595600a0003bde827a45460029",
  "source": "pragma solidity ^0.4.4;\n\ncontract government{\n\t\n\tenum ImmigrationStatus {registered, paying, accepted, rejected}\n\tImmigrationStatus public currentState; \n\n\tmapping (address => uint256) public structs;\n\n\n\n\tstruct immigrantStruct{\n\t\tuint contribution;\n\t}\n\n\timmigrantStruct newStruct;\n\n\tfunction Struct(){\n\t\tnewStruct.contribution = 0; \n\t}\n\n\tfunction balance() returns (uint){\n\t\treturn newStruct.contribution;\n\t}\n\n\tfunction contribute() payable returns (bool) {\n\t}\n\n\tfunction immigrantWithdraw() returns (bool) {\n\n\t}\n\n\n\n\tfunction queryContribution(address _address) constant returns (uint256 balance) {\n\t}\n\n\tevent ContributionLog(address _to, uint _amount);\n\n\t}",
  "sourcePath": "/Users/gillianchu/Desktop/ethWaterloo/contracts/contracts/government.sol",
  "schemaVersion": "1.0.0",
  "updatedAt": "2017-10-14T14:05:22.698Z"
}