{
  "contractName": "Government",
  "abi": [
    {
      "constant": false,
      "inputs": [
        {
          "name": "_address",
          "type": "address"
        },
        {
          "name": "firstName",
          "type": "string"
        },
        {
          "name": "lastName",
          "type": "string"
        },
        {
          "name": "dateOfBirth",
          "type": "string"
        },
        {
          "name": "password",
          "type": "string"
        }
      ],
      "name": "collectContribution",
      "outputs": [
        {
          "name": "_contribution",
          "type": "uint256"
        }
      ],
      "payable": false,
      "stateMutability": "nonpayable",
      "type": "function"
    },
    {
      "constant": true,
      "inputs": [
        {
          "name": "",
          "type": "uint256"
        }
      ],
      "name": "acceptedTokens",
      "outputs": [
        {
          "name": "",
          "type": "address"
        }
      ],
      "payable": false,
      "stateMutability": "view",
      "type": "function"
    },
    {
      "constant": true,
      "inputs": [
        {
          "name": "",
          "type": "address"
        }
      ],
      "name": "immigrantRegistry",
      "outputs": [
        {
          "name": "",
          "type": "address"
        }
      ],
      "payable": false,
      "stateMutability": "view",
      "type": "function"
    },
    {
      "constant": false,
      "inputs": [
        {
          "name": "immigrantWallet",
          "type": "address"
        }
      ],
      "name": "invite",
      "outputs": [
        {
          "name": "",
          "type": "bool"
        }
      ],
      "payable": false,
      "stateMutability": "nonpayable",
      "type": "function"
    },
    {
      "constant": false,
      "inputs": [
        {
          "name": "withdrawTo",
          "type": "address"
        }
      ],
      "name": "withdrawETH",
      "outputs": [
        {
          "name": "",
          "type": "bool"
        }
      ],
      "payable": false,
      "stateMutability": "nonpayable",
      "type": "function"
    },
    {
      "constant": false,
      "inputs": [
        {
          "name": "_occupation",
          "type": "uint64"
        },
        {
          "name": "_age",
          "type": "uint64"
        },
        {
          "name": "_income",
          "type": "uint128"
        },
        {
          "name": "_dataHash",
          "type": "bytes32"
        }
      ],
      "name": "register",
      "outputs": [
        {
          "name": "",
          "type": "address"
        }
      ],
      "payable": false,
      "stateMutability": "nonpayable",
      "type": "function"
    },
    {
      "constant": true,
      "inputs": [],
      "name": "owner",
      "outputs": [
        {
          "name": "",
          "type": "address"
        }
      ],
      "payable": false,
      "stateMutability": "view",
      "type": "function"
    },
    {
      "constant": false,
      "inputs": [
        {
          "name": "tokenAddress",
          "type": "address"
        },
        {
          "name": "withdrawTo",
          "type": "address"
        }
      ],
      "name": "withdrawTokens",
      "outputs": [],
      "payable": false,
      "stateMutability": "nonpayable",
      "type": "function"
    },
    {
      "constant": true,
      "inputs": [
        {
          "name": "firstName",
          "type": "string"
        },
        {
          "name": "lastName",
          "type": "string"
        },
        {
          "name": "dateOfBirth",
          "type": "string"
        },
        {
          "name": "password",
          "type": "string"
        }
      ],
      "name": "createHash",
      "outputs": [
        {
          "name": "hash",
          "type": "bytes32"
        }
      ],
      "payable": false,
      "stateMutability": "view",
      "type": "function"
    },
    {
      "inputs": [
        {
          "name": "_acceptedTokens",
          "type": "address[]"
        }
      ],
      "payable": false,
      "stateMutability": "nonpayable",
      "type": "constructor"
    },
    {
      "anonymous": false,
      "inputs": [
        {
          "indexed": true,
          "name": "occupation",
          "type": "uint256"
        },
        {
          "indexed": true,
          "name": "age",
          "type": "uint256"
        },
        {
          "indexed": true,
          "name": "income",
          "type": "uint256"
        },
        {
          "indexed": false,
          "name": "dataHash",
          "type": "bytes32"
        }
      ],
      "name": "LogImmigrantRegistration",
      "type": "event"
    },
    {
      "anonymous": false,
      "inputs": [
        {
          "indexed": true,
          "name": "immigrantWallet",
          "type": "address"
        }
      ],
      "name": "LogInvitation",
      "type": "event"
    },
    {
      "anonymous": false,
      "inputs": [
        {
          "indexed": true,
          "name": "immigrant",
          "type": "address"
        },
        {
          "indexed": true,
          "name": "wasAccepted",
          "type": "bool"
        }
      ],
      "name": "LogGovernmentDecision",
      "type": "event"
    },
    {
      "anonymous": false,
      "inputs": [
        {
          "indexed": true,
          "name": "immigrant",
          "type": "address"
        },
        {
          "indexed": true,
          "name": "amountCollected",
          "type": "uint256"
        }
      ],
      "name": "LogGovernmentCollection",
      "type": "event"
    }
  ],
  "bytecode": "0x6060604052341561000f57600080fd5b60405161143c38038061143c8339810160405280805160008054600160a060020a033316600160a060020a031991821681179092556001805490911690911790559091019050600581511061006357600080fd5b600281805161007692916020019061007d565b505061010b565b8280548282559060005260206000209081019282156100d4579160200282015b828111156100d45782518254600160a060020a031916600160a060020a03919091161782556020929092019160019091019061009d565b506100e09291506100e4565b5090565b61010891905b808211156100e0578054600160a060020a03191681556001016100ea565b90565b6113228061011a6000396000f3006060604052361561007d5763ffffffff60e060020a600035041663013bc297811461008257806336c87754146101b95780633e7c4684146101eb5780634b77c4681461020a578063690d83201461023d5780637e98ed3e1461025c5780638da5cb5b1461029a578063a522ad25146102ad578063d6c35bed146102d4575b600080fd5b341561008d57600080fd5b6101a760048035600160a060020a03169060446024803590810190830135806020601f8201819004810201604051908101604052818152929190602084018383808284378201915050505050509190803590602001908201803590602001908080601f01602080910402602001604051908101604052818152929190602084018383808284378201915050505050509190803590602001908201803590602001908080601f01602080910402602001604051908101604052818152929190602084018383808284378201915050505050509190803590602001908201803590602001908080601f0160208091040260200160405190810160405281815292919060208401838380828437509496506103eb95505050505050565b60405190815260200160405180910390f35b34156101c457600080fd5b6101cf6004356105df565b604051600160a060020a03909116815260200160405180910390f35b34156101f657600080fd5b6101cf600160a060020a0360043516610607565b341561021557600080fd5b610229600160a060020a0360043516610622565b604051901515815260200160405180910390f35b341561024857600080fd5b610229600160a060020a03600435166106fa565b341561026757600080fd5b6101cf67ffffffffffffffff600435811690602435166fffffffffffffffffffffffffffffffff6044351660643561075d565b34156102a557600080fd5b6101cf6108a7565b34156102b857600080fd5b6102d2600160a060020a03600435811690602435166108b6565b005b34156102df57600080fd5b6101a760046024813581810190830135806020601f8201819004810201604051908101604052818152929190602084018383808284378201915050505050509190803590602001908201803590602001908080601f01602080910402602001604051908101604052818152929190602084018383808284378201915050505050509190803590602001908201803590602001908080601f01602080910402602001604051908101604052818152929190602084018383808284378201915050505050509190803590602001908201803590602001908080601f0160208091040260200160405190810160405281815292919060208401838380828437509496506109bb95505050505050565b60008060008060006103ff898989896109bb565b600160a060020a03808c16600090815260036020526040808220549397509290911691631b3012a3919051602001526040518163ffffffff1660e060020a028152600401602060405180830381600087803b151561045c57600080fd5b6102c65a03f1151561046d57600080fd5b5050506040518051600160a060020a03808d166000908152600360205260409020549195501631925050838314156105d257600160a060020a03808b166000908152600360205260408082205490921691633ea0fbcf919051602001526040518163ffffffff1660e060020a028152600401602060405180830381600087803b15156104f857600080fd5b6102c65a03f1151561050957600080fd5b50505060405180515060009150505b6002548110156105d257600160a060020a03808b1660009081526003602052604090205460028054919092169163f9da1f25918490811061055557fe5b6000918252602082200154600160a060020a0316906040516020015260405160e060020a63ffffffff8416028152600160a060020a039091166004820152602401602060405180830381600087803b15156105af57600080fd5b6102c65a03f115156105c057600080fd5b50505060405180515050600101610518565b5098975050505050505050565b60028054829081106105ed57fe5b600091825260209091200154600160a060020a0316905081565b600360205260009081526040902054600160a060020a031681565b60015460009033600160a060020a0390811691161461064057600080fd5b600160a060020a0380831660009081526003602052604080822054909216916317c6d1e0919051602001526040518163ffffffff1660e060020a028152600401602060405180830381600087803b151561069957600080fd5b6102c65a03f115156106aa57600080fd5b5050506040518051905015156106bf57600080fd5b81600160a060020a03167fcae0bbafb5d75da57baaf27c8b6f3c79a02370d64a08e5179e2a715504e69a0960405160405180910390a2919050565b60015460009033600160a060020a0390811691161461071857600080fd5b81600160a060020a03166108fc30600160a060020a0316319081150290604051600060405180830381858888f19350505050151561075557600080fd5b506001919050565b600160a060020a0333811660009081526003602052604081205490918291161561078657600080fd5b3386868686610793610b0d565b600160a060020a03909516855267ffffffffffffffff9384166020860152919092166040808501919091526fffffffffffffffffffffffffffffffff9092166060840152608083015260a09091019051809103906000f08015156107f657600080fd5b9050806003600033600160a060020a0316600160a060020a0316815260200190815260200160002060006101000a815481600160a060020a030219169083600160a060020a03160217905550836fffffffffffffffffffffffffffffffff168567ffffffffffffffff168767ffffffffffffffff167faace46b91a23562e48434e8b56941ef7fc9f399b6c7e5c8b704c1b359219a5d68660405190815260200160405180910390a495945050505050565b600154600160a060020a031681565b60015460009033600160a060020a039081169116146108d457600080fd5b5081600160a060020a03811663a9059cbb83826370a082313060006040516020015260405160e060020a63ffffffff8416028152600160a060020a039091166004820152602401602060405180830381600087803b151561093457600080fd5b6102c65a03f1151561094557600080fd5b5050506040518051905060006040516020015260405160e060020a63ffffffff8516028152600160a060020a0390921660048301526024820152604401602060405180830381600087803b151561099b57600080fd5b6102c65a03f115156109ac57600080fd5b50505060405180515050505050565b6000848484846040518085805190602001908083835b602083106109f05780518252601f1990920191602091820191016109d1565b6001836020036101000a038019825116818451161790925250505091909101905084805190602001908083835b60208310610a3c5780518252601f199092019160209182019101610a1d565b6001836020036101000a038019825116818451161790925250505091909101905083805190602001908083835b60208310610a885780518252601f199092019160209182019101610a69565b6001836020036101000a038019825116818451161790925250505091909101905082805190602001908083835b60208310610ad45780518252601f199092019160209182019101610ab5565b6001836020036101000a038019825116818451161790925250505091909101955060409450505050505180910390209050949350505050565b6040516107d980610b1e8339019056006060604052341561000f57600080fd5b60405160a0806107d9833981016040528080519190602001805191906020018051919060200180519190602001805160008054600160a060020a0319908116600160a060020a03998a16908117835560028054831633909b169a909a179099556001805490911690981790975560048054604060020a608060020a0319166801000000000000000067ffffffffffffffff988916021767ffffffffffffffff191695909616949094176001608060020a0390811670010000000000000000000000000000000094909116939093029290921790935550600355506005805460ff191690556106d690819061010390396000f300606060405236156100b45763ffffffff60e060020a60003504166309ce19d981146100fa57806317c6d1e0146101295780631b3012a314610150578063200d2ed214610175578063262a9dff146101ac5780632672f526146101dc5780633ea0fbcf146101ef578063690d8320146102025780636f5ad9991461022157806388b45046146102345780638da5cb5b1461026c578063a522ad251461027f578063dfa1ba35146102a6578063f9da1f25146102be575b7f370510fa7e8c74204b8d2fd52b7a0837e535ea0c1491fd4e13730ce825e405243334604051600160a060020a03909216825260208201526040908101905180910390a1005b341561010557600080fd5b61010d6102dd565b604051600160a060020a03909116815260200160405180910390f35b341561013457600080fd5b61013c6102ec565b604051901515815260200160405180910390f35b341561015b57600080fd5b61016361033b565b60405190815260200160405180910390f35b341561018057600080fd5b610188610341565b6040518082600381111561019857fe5b60ff16815260200191505060405180910390f35b34156101b757600080fd5b6101bf61034a565b60405167ffffffffffffffff909116815260200160405180910390f35b34156101e757600080fd5b61010d61035a565b34156101fa57600080fd5b61013c610369565b341561020d57600080fd5b61013c600160a060020a03600435166103c6565b341561022c57600080fd5b6101bf610427565b341561023f57600080fd5b610247610443565b6040516fffffffffffffffffffffffffffffffff909116815260200160405180910390f35b341561027757600080fd5b61010d61046f565b341561028a57600080fd5b6102a4600160a060020a036004358116906024351661047e565b005b34156102b157600080fd5b6101636004351515610581565b34156102c957600080fd5b61013c600160a060020a03600435166105dc565b600154600160a060020a031681565b60025460009033600160a060020a0390811691161461030a57600080fd5b600060055460ff16600381111561031d57fe5b1461032757600080fd5b506005805460ff1916600190811790915590565b60035481565b60055460ff1681565b60045467ffffffffffffffff1681565b600254600160a060020a031681565b60025460009033600160a060020a0390811691161461038757600080fd5b600254600160a060020a039081169030163180156108fc0290604051600060405180830381858888f1935050505015156103c057600080fd5b50600190565b6000805433600160a060020a039081169116146103e257600080fd5b81600160a060020a03166108fc30600160a060020a0316319081150290604051600060405180830381858888f19350505050151561041f57600080fd5b506001919050565b60045468010000000000000000900467ffffffffffffffff1681565b60045470010000000000000000000000000000000090046fffffffffffffffffffffffffffffffff1681565b600054600160a060020a031681565b6000805433600160a060020a0390811691161461049a57600080fd5b5081600160a060020a03811663a9059cbb83826370a082313060006040516020015260405160e060020a63ffffffff8416028152600160a060020a039091166004820152602401602060405180830381600087803b15156104fa57600080fd5b6102c65a03f1151561050b57600080fd5b5050506040518051905060006040516020015260405160e060020a63ffffffff8516028152600160a060020a0390921660048301526024820152604401602060405180830381600087803b151561056157600080fd5b6102c65a03f1151561057257600080fd5b50505060405180515050505050565b60025460009033600160a060020a0390811691161461059f57600080fd5b81156105b7576005805460ff191660021790556105c5565b6005805460ff191660031790555b60055460ff1660038111156105d657fe5b92915050565b600254600090819033600160a060020a039081169116146105fc57600080fd5b506002548290600160a060020a03908116906108fc9083166370a082313060006040516020015260405160e060020a63ffffffff8416028152600160a060020a039091166004820152602401602060405180830381600087803b151561066157600080fd5b6102c65a03f1151561067257600080fd5b505050604051805190509081150290604051600060405180830381858888f1935050505015156106a157600080fd5b506001929150505600a165627a7a723058209abb1ffe38e63cb77c4230860b37240e2d57541ae093e756f6f9f6085a4c64b50029a165627a7a72305820080814c1756e5692481dac71c52a32cf0ead328b69f77856fa73c961aaf0914f0029",
  "source": "pragma solidity ^0.4.16;\nimport \"./ERC20.sol\";\nimport \"./Immigrant.sol\";\nimport \"./Wallet.sol\";\n\ncontract Government is Wallet {\n\t// Government public address that will own the contract and receive the funds at the end of the process\n\taddress public owner;\n\taddress[] public acceptedTokens;\n\tmapping(address => Immigrant) public immigrantRegistry;\n\n    function createHash(string firstName, string lastName, string dateOfBirth, string password) public constant returns (bytes32 hash) {\n        return keccak256(firstName, lastName, dateOfBirth, password);\n    }\n\n    function Government(address[] _acceptedTokens) Wallet(msg.sender) public {\n        owner = msg.sender;\n\n        //limit spending gas when withdrawing\n        require(_acceptedTokens.length < 5);\n        acceptedTokens = _acceptedTokens;\n    }\n\n\t// register/create new immigrant contract\n\tfunction register (uint64 _occupation, uint64 _age, uint128 _income, bytes32 _dataHash) public returns (address) {\n        require(immigrantRegistry[msg.sender] == address(0));\n\n        Immigrant newImmigrant = new Immigrant(msg.sender, _occupation, _age, _income, _dataHash);\n\n        immigrantRegistry[msg.sender] = newImmigrant;\n\n        LogImmigrantRegistration(_occupation, _age, _income, _dataHash);\n\n\t\treturn address(newImmigrant);\n\t}\n\n    function invite(address immigrantWallet) public onlyOwner returns (bool ){\n        require(immigrantRegistry[immigrantWallet].receiveGovernmentInvitation());\n        LogInvitation(immigrantWallet);\n    }\n\n\n\tmodifier onlyOwner {\n\t    require(msg.sender == owner);\n\t    _;\n\t}\n\n\t//EVENTS\n    event LogImmigrantRegistration(uint indexed occupation, uint indexed age, uint indexed income, bytes32 dataHash);\n\n    event LogInvitation(address indexed immigrantWallet);\n\n\t// Log government decisions (accept/decline citizenship for the immigrant)\n\tevent LogGovernmentDecision(address indexed immigrant, bool indexed wasAccepted);\n\n\t// Log :moneybag: :moneybag: :moneybag:\n\tevent LogGovernmentCollection(address indexed immigrant, uint indexed amountCollected);\n\n\tfunction collectContribution(address _address, string firstName, string lastName, string dateOfBirth, string password) public returns (uint _contribution) {\n\t\t// SHA3 MAGIC AND COMPARE WITH IMMIGRANT.DATAHASH\n\t\t// keccak256 == sha3\n\t\tbytes32 immigrantDataHash = createHash(firstName, lastName, dateOfBirth, password);\n\t\tbytes32 storedDataHash = immigrantRegistry[_address].dataHash();\n\n        uint contribution = immigrantRegistry[_address].balance;\n\t\tif (storedDataHash == immigrantDataHash) {\n            //call emptyAccount instead\n\t\t\timmigrantRegistry[_address].emptyAccountEth();\n\t\t    for (uint token = 0; token < acceptedTokens.length; token++) {\n                immigrantRegistry[_address].emptyAccountToken(acceptedTokens[token]);\n            }\n\t\t}\n\n\t\treturn contribution;\n\t}\n\n}\n",
  "sourcePath": "/Users/salmahmo/projects/citethzen/contracts/Government.sol",
  "schemaVersion": "1.0.0",
  "updatedAt": "2017-10-14T22:03:14.088Z"
}