{
  "contractName": "Government",
  "abi": [
    {
      "constant": false,
      "inputs": [
        {
          "name": "_address",
          "type": "address"
        },
        {
          "name": "firstName",
          "type": "string"
        },
        {
          "name": "lastName",
          "type": "string"
        },
        {
          "name": "dateOfBirth",
          "type": "string"
        },
        {
          "name": "pin",
          "type": "string"
        }
      ],
      "name": "collectContribution",
      "outputs": [
        {
          "name": "_contribution",
          "type": "uint256"
        }
      ],
      "payable": false,
      "stateMutability": "nonpayable",
      "type": "function"
    },
    {
      "constant": true,
      "inputs": [
        {
          "name": "",
          "type": "uint256"
        }
      ],
      "name": "acceptedTokens",
      "outputs": [
        {
          "name": "",
          "type": "address"
        }
      ],
      "payable": false,
      "stateMutability": "view",
      "type": "function"
    },
    {
      "constant": true,
      "inputs": [
        {
          "name": "",
          "type": "address"
        }
      ],
      "name": "immigrantRegistry",
      "outputs": [
        {
          "name": "",
          "type": "address"
        }
      ],
      "payable": false,
      "stateMutability": "view",
      "type": "function"
    },
    {
      "constant": false,
      "inputs": [
        {
          "name": "immigrantWallet",
          "type": "address"
        }
      ],
      "name": "invite",
      "outputs": [
        {
          "name": "",
          "type": "bool"
        }
      ],
      "payable": false,
      "stateMutability": "nonpayable",
      "type": "function"
    },
    {
      "constant": false,
      "inputs": [
        {
          "name": "deliverTo",
          "type": "address"
        }
      ],
      "name": "withdraw",
      "outputs": [
        {
          "name": "",
          "type": "bool"
        }
      ],
      "payable": false,
      "stateMutability": "nonpayable",
      "type": "function"
    },
    {
      "constant": false,
      "inputs": [
        {
          "name": "_occupation",
          "type": "uint64"
        },
        {
          "name": "_age",
          "type": "uint64"
        },
        {
          "name": "_income",
          "type": "uint128"
        },
        {
          "name": "_dataHash",
          "type": "bytes32"
        }
      ],
      "name": "register",
      "outputs": [
        {
          "name": "",
          "type": "address"
        }
      ],
      "payable": false,
      "stateMutability": "nonpayable",
      "type": "function"
    },
    {
      "constant": true,
      "inputs": [],
      "name": "owner",
      "outputs": [
        {
          "name": "",
          "type": "address"
        }
      ],
      "payable": false,
      "stateMutability": "view",
      "type": "function"
    },
    {
      "inputs": [
        {
          "name": "_acceptedTokens",
          "type": "address[]"
        }
      ],
      "payable": false,
      "stateMutability": "nonpayable",
      "type": "constructor"
    },
    {
      "anonymous": false,
      "inputs": [
        {
          "indexed": true,
          "name": "occupation",
          "type": "uint256"
        },
        {
          "indexed": true,
          "name": "age",
          "type": "uint256"
        },
        {
          "indexed": true,
          "name": "income",
          "type": "uint256"
        },
        {
          "indexed": false,
          "name": "dataHash",
          "type": "bytes32"
        }
      ],
      "name": "LogImmigrantRegistration",
      "type": "event"
    },
    {
      "anonymous": false,
      "inputs": [
        {
          "indexed": true,
          "name": "immigrantWallet",
          "type": "address"
        }
      ],
      "name": "LogInvitation",
      "type": "event"
    },
    {
      "anonymous": false,
      "inputs": [
        {
          "indexed": true,
          "name": "immigrant",
          "type": "address"
        },
        {
          "indexed": true,
          "name": "wasAccepted",
          "type": "bool"
        }
      ],
      "name": "LogGovernmentDecision",
      "type": "event"
    },
    {
      "anonymous": false,
      "inputs": [
        {
          "indexed": true,
          "name": "immigrant",
          "type": "address"
        },
        {
          "indexed": true,
          "name": "amountCollected",
          "type": "uint256"
        }
      ],
      "name": "LogGovernmentCollection",
      "type": "event"
    }
  ],
  "bytecode": "0x6060604052341561000f57600080fd5b604051610f94380380610f948339810160405280805160008054600160a060020a03191633600160a060020a0316179055919091019050600581511061005457600080fd5b600181805161006792916020019061006e565b50506100fc565b8280548282559060005260206000209081019282156100c5579160200282015b828111156100c55782518254600160a060020a031916600160a060020a03919091161782556020929092019160019091019061008e565b506100d19291506100d5565b5090565b6100f991905b808211156100d1578054600160a060020a03191681556001016100db565b90565b610e898061010b6000396000f300606060405236156100675763ffffffff60e060020a600035041663013bc297811461006c57806336c87754146101a35780633e7c4684146101d55780634b77c468146101f457806351cff8d9146102275780637e98ed3e146102465780638da5cb5b14610284575b600080fd5b341561007757600080fd5b61019160048035600160a060020a03169060446024803590810190830135806020601f8201819004810201604051908101604052818152929190602084018383808284378201915050505050509190803590602001908201803590602001908080601f01602080910402602001604051908101604052818152929190602084018383808284378201915050505050509190803590602001908201803590602001908080601f01602080910402602001604051908101604052818152929190602084018383808284378201915050505050509190803590602001908201803590602001908080601f01602080910402602001604051908101604052818152929190602084018383808284375094965061029795505050505050565b60405190815260200160405180910390f35b34156101ae57600080fd5b6101b96004356105c6565b604051600160a060020a03909116815260200160405180910390f35b34156101e057600080fd5b6101b9600160a060020a03600435166105ee565b34156101ff57600080fd5b610213600160a060020a0360043516610609565b604051901515815260200160405180910390f35b341561023257600080fd5b610213600160a060020a03600435166106df565b341561025157600080fd5b6101b967ffffffffffffffff600435811690602435166fffffffffffffffffffffffffffffffff60443516606435610740565b341561028f57600080fd5b6101b961088a565b6000806000806000888888886040518085805190602001908083835b602083106102d25780518252601f1990920191602091820191016102b3565b6001836020036101000a038019825116818451161790925250505091909101905084805190602001908083835b6020831061031e5780518252601f1990920191602091820191016102ff565b6001836020036101000a038019825116818451161790925250505091909101905083805190602001908083835b6020831061036a5780518252601f19909201916020918201910161034b565b6001836020036101000a038019825116818451161790925250505091909101905082805190602001908083835b602083106103b65780518252601f199092019160209182019101610397565b6001836020036101000a0380198251168184511617909252505050919091019550604094505050505051908190039020600160a060020a03808c16600090815260026020526040808220549397509290911691631b3012a3919051602001526040518163ffffffff1660e060020a028152600401602060405180830381600087803b151561044357600080fd5b6102c65a03f1151561045457600080fd5b5050506040518051600160a060020a03808d166000908152600260205260409020549195501631925050838314156105b957600160a060020a03808b166000908152600260205260408082205490921691633ea0fbcf919051602001526040518163ffffffff1660e060020a028152600401602060405180830381600087803b15156104df57600080fd5b6102c65a03f115156104f057600080fd5b50505060405180515060009150505b6001548110156105b957600160a060020a03808b1660009081526002602052604090205460018054919092169163f9da1f25918490811061053c57fe5b6000918252602082200154600160a060020a0316906040516020015260405160e060020a63ffffffff8416028152600160a060020a039091166004820152602401602060405180830381600087803b151561059657600080fd5b6102c65a03f115156105a757600080fd5b505050604051805150506001016104ff565b5098975050505050505050565b60018054829081106105d457fe5b600091825260209091200154600160a060020a0316905081565b600260205260009081526040902054600160a060020a031681565b6000805433600160a060020a0390811691161461062557600080fd5b600160a060020a03808316600090815260026020526040808220549092169163eec30bfd919051602001526040518163ffffffff1660e060020a028152600401602060405180830381600087803b151561067e57600080fd5b6102c65a03f1151561068f57600080fd5b5050506040518051905015156106a457600080fd5b81600160a060020a03167fcae0bbafb5d75da57baaf27c8b6f3c79a02370d64a08e5179e2a715504e69a0960405160405180910390a2919050565b6000805433600160a060020a039081169116146106fb57600080fd5b81600160a060020a03166108fc30600160a060020a0316319081150290604051600060405180830381858888f19350505050151561073857600080fd5b506001919050565b600160a060020a0333811660009081526002602052604081205490918291161561076957600080fd5b3386868686610776610899565b600160a060020a03909516855267ffffffffffffffff9384166020860152919092166040808501919091526fffffffffffffffffffffffffffffffff9092166060840152608083015260a09091019051809103906000f08015156107d957600080fd5b9050806002600033600160a060020a0316600160a060020a0316815260200190815260200160002060006101000a815481600160a060020a030219169083600160a060020a03160217905550836fffffffffffffffffffffffffffffffff168567ffffffffffffffff168767ffffffffffffffff167faace46b91a23562e48434e8b56941ef7fc9f399b6c7e5c8b704c1b359219a5d68660405190815260200160405180910390a495945050505050565b600054600160a060020a031681565b6040516105b4806108aa8339019056006060604052341561000f57600080fd5b60405160a0806105b4833981016040528080519190602001805191906020018051919060200180519190602001805160018054600160a060020a031990811633600160a060020a0390811691909117909255600080549091169890911697909717875560038054604060020a608060020a0319166801000000000000000067ffffffffffffffff988916021767ffffffffffffffff191695909616949094176001608060020a0390811670010000000000000000000000000000000094909116939093029290921790935550600255506004805460ff191690556104bb9081906100f990396000f300606060405236156100885763ffffffff60e060020a6000350416631b3012a3811461008a578063262a9dff146100af5780632672f526146100df5780633ea0fbcf1461010e5780636f5ad9991461013557806388b4504614610148578063dfa1ba3514610180578063e6704dc414610198578063eec30bfd146101ab578063f9da1f25146101be575b005b341561009557600080fd5b61009d6101dd565b60405190815260200160405180910390f35b34156100ba57600080fd5b6100c26101e3565b60405167ffffffffffffffff909116815260200160405180910390f35b34156100ea57600080fd5b6100f26101f3565b604051600160a060020a03909116815260200160405180910390f35b341561011957600080fd5b610121610202565b604051901515815260200160405180910390f35b341561014057600080fd5b6100c261025f565b341561015357600080fd5b61015b61027b565b6040516fffffffffffffffffffffffffffffffff909116815260200160405180910390f35b341561018b57600080fd5b61009d60043515156102a7565b34156101a357600080fd5b6100f261031f565b34156101b657600080fd5b61012161032e565b34156101c957600080fd5b610121600160a060020a036004351661037d565b60025481565b60035467ffffffffffffffff1681565b600154600160a060020a031681565b60015460009033600160a060020a0390811691161461022057600080fd5b600154600160a060020a039081169030163180156108fc0290604051600060405180830381858888f19350505050151561025957600080fd5b50600190565b60035468010000000000000000900467ffffffffffffffff1681565b60035470010000000000000000000000000000000090046fffffffffffffffffffffffffffffffff1681565b60015460009033600160a060020a039081169116146102c557600080fd5b600160045460ff1660038111156102d857fe5b146102e257600080fd5b81156102fa576004805460ff19166002179055610308565b6004805460ff191660031790555b60045460ff16600381111561031957fe5b92915050565b600054600160a060020a031681565b60015460009033600160a060020a0390811691161461034c57600080fd5b600060045460ff16600381111561035f57fe5b1461036957600080fd5b506004805460ff1916600190811790915590565b600154600090819033600160a060020a0390811691161461039d57600080fd5b506001548290600160a060020a038083169163a9059cbb9116826370a082313060006040516020015260405160e060020a63ffffffff8416028152600160a060020a039091166004820152602401602060405180830381600087803b151561040457600080fd5b6102c65a03f1151561041557600080fd5b5050506040518051905060006040516020015260405160e060020a63ffffffff8516028152600160a060020a0390921660048301526024820152604401602060405180830381600087803b151561046b57600080fd5b6102c65a03f1151561047c57600080fd5b50505060405180515060019493505050505600a165627a7a723058206de916faa93fff711ca90b69794bd1b6ac3727803ef89a0aaa4d9a4631e14e980029a165627a7a72305820bf8c4fe619f25af0db36c142769deb3399b3ea099808e0a3d41452430f52eabf0029",
  "source": "pragma solidity ^0.4.16;\nimport \"./ERC20.sol\";\nimport \"./Immigrant.sol\";\n\ncontract Government {\n\t// Government public address that will own the contract and receive the funds at the end of the process\n\taddress public owner;\n\taddress[] public acceptedTokens;\n\tmapping (address => Immigrant) public immigrantRegistry;\n\n    function Government(address[] _acceptedTokens) public {\n        owner = msg.sender;\n\n        //limit spending gas when withdrawing\n        require(_acceptedTokens.length < 5);\n        acceptedTokens = _acceptedTokens;\n    }\n\n\t// register/create new immigrant contract\n\tfunction register (uint64 _occupation, uint64 _age, uint128 _income, bytes32 _dataHash) public returns (address) {\n        require(immigrantRegistry[msg.sender] == address(0));\n\n        Immigrant newImmigrant = new Immigrant(msg.sender, _occupation, _age, _income, _dataHash);\n\n        immigrantRegistry[msg.sender] = newImmigrant;\n\n        LogImmigrantRegistration(_occupation, _age, _income, _dataHash);\n\n\t\treturn address(newImmigrant);\n\t}\n\n    function invite(address immigrantWallet) public onlyOwner returns (bool ){\n        require(immigrantRegistry[immigrantWallet].invite());\n        LogInvitation(immigrantWallet);\n    }\n\n\tmodifier onlyOwner {\n\t    require(msg.sender == owner);\n\t    _;\n\t}\n\n\t//write a function for government to empty it's contract\n\tfunction withdraw(address deliverTo) public onlyOwner returns (bool) {\n        deliverTo.transfer(this.balance);\n        return true;\n\t}\n\n\t//EVENTS\n    event LogImmigrantRegistration(uint indexed occupation, uint indexed age, uint indexed income, bytes32 dataHash);\n\n    event LogInvitation(address indexed immigrantWallet);\n\n\t// Log government decisions (accept/decline citizenship for the immigrant)\n\tevent LogGovernmentDecision(address indexed immigrant, bool indexed wasAccepted);\n\n\t// Log :moneybag: :moneybag: :moneybag:\n\tevent LogGovernmentCollection(address indexed immigrant, uint indexed amountCollected);\n\n\tfunction collectContribution(address _address, string firstName, string lastName, string dateOfBirth, string pin) public returns (uint _contribution) {\n\t\t// SHA3 MAGIC AND COMPARE WITH IMMIGRANT.DATAHASH\n\t\t// keccak256 == sha3\n\t\tbytes32 immigrantDataHash = keccak256(firstName, lastName, dateOfBirth, pin);\n\t\tbytes32 storedDataHash = immigrantRegistry[_address].dataHash();\n\n        uint contribution = immigrantRegistry[_address].balance;\n\t\tif (storedDataHash == immigrantDataHash) {\n            //call emptyAccount instead\n\t\t\timmigrantRegistry[_address].emptyAccountEth();\n\t\t    for (uint token = 0; token < acceptedTokens.length; token++) {\n                immigrantRegistry[_address].emptyAccountToken(acceptedTokens[token]);\n            }\n\t\t}\n\n\t\treturn contribution;\n\t}\n\n}\n",
  "sourcePath": "/Users/salmahmo/projects/citethzen/contracts/Government.sol",
  "schemaVersion": "1.0.0",
  "updatedAt": "2017-10-14T18:48:28.210Z"
}