{
  "contractName": "Immigrant",
  "abi": [
    {
      "constant": true,
      "inputs": [],
      "name": "dataHash",
      "outputs": [
        {
          "name": "",
          "type": "bytes32"
        }
      ],
      "payable": false,
      "stateMutability": "view",
      "type": "function"
    },
    {
      "constant": true,
      "inputs": [],
      "name": "age",
      "outputs": [
        {
          "name": "",
          "type": "uint64"
        }
      ],
      "payable": false,
      "stateMutability": "view",
      "type": "function"
    },
    {
      "constant": true,
      "inputs": [],
      "name": "government",
      "outputs": [
        {
          "name": "",
          "type": "address"
        }
      ],
      "payable": false,
      "stateMutability": "view",
      "type": "function"
    },
    {
      "constant": false,
      "inputs": [],
      "name": "emptyAccountEth",
      "outputs": [
        {
          "name": "",
          "type": "bool"
        }
      ],
      "payable": false,
      "stateMutability": "nonpayable",
      "type": "function"
    },
    {
      "constant": true,
      "inputs": [],
      "name": "occupation",
      "outputs": [
        {
          "name": "",
          "type": "uint64"
        }
      ],
      "payable": false,
      "stateMutability": "view",
      "type": "function"
    },
    {
      "constant": true,
      "inputs": [],
      "name": "income",
      "outputs": [
        {
          "name": "",
          "type": "uint128"
        }
      ],
      "payable": false,
      "stateMutability": "view",
      "type": "function"
    },
    {
      "constant": false,
      "inputs": [
        {
          "name": "accepted",
          "type": "bool"
        }
      ],
      "name": "makeDecision",
      "outputs": [
        {
          "name": "_status",
          "type": "uint256"
        }
      ],
      "payable": false,
      "stateMutability": "nonpayable",
      "type": "function"
    },
    {
      "constant": true,
      "inputs": [],
      "name": "immigrantWallet",
      "outputs": [
        {
          "name": "",
          "type": "address"
        }
      ],
      "payable": false,
      "stateMutability": "view",
      "type": "function"
    },
    {
      "constant": false,
      "inputs": [],
      "name": "invite",
      "outputs": [
        {
          "name": "success",
          "type": "bool"
        }
      ],
      "payable": false,
      "stateMutability": "nonpayable",
      "type": "function"
    },
    {
      "constant": false,
      "inputs": [
        {
          "name": "tokenAddress",
          "type": "address"
        }
      ],
      "name": "emptyAccountToken",
      "outputs": [
        {
          "name": "",
          "type": "bool"
        }
      ],
      "payable": false,
      "stateMutability": "nonpayable",
      "type": "function"
    },
    {
      "inputs": [
        {
          "name": "_immigrantWallet",
          "type": "address"
        },
        {
          "name": "_occupation",
          "type": "uint64"
        },
        {
          "name": "_age",
          "type": "uint64"
        },
        {
          "name": "_income",
          "type": "uint128"
        },
        {
          "name": "_dataHash",
          "type": "bytes32"
        }
      ],
      "payable": false,
      "stateMutability": "nonpayable",
      "type": "constructor"
    },
    {
      "payable": true,
      "stateMutability": "payable",
      "type": "fallback"
    }
  ],
  "bytecode": "0x6060604052341561000f57600080fd5b60405160a0806105b4833981016040528080519190602001805191906020018051919060200180519190602001805160018054600160a060020a031990811633600160a060020a0390811691909117909255600080549091169890911697909717875560038054604060020a608060020a0319166801000000000000000067ffffffffffffffff988916021767ffffffffffffffff191695909616949094176001608060020a0390811670010000000000000000000000000000000094909116939093029290921790935550600255506004805460ff191690556104bb9081906100f990396000f300606060405236156100885763ffffffff60e060020a6000350416631b3012a3811461008a578063262a9dff146100af5780632672f526146100df5780633ea0fbcf1461010e5780636f5ad9991461013557806388b4504614610148578063dfa1ba3514610180578063e6704dc414610198578063eec30bfd146101ab578063f9da1f25146101be575b005b341561009557600080fd5b61009d6101dd565b60405190815260200160405180910390f35b34156100ba57600080fd5b6100c26101e3565b60405167ffffffffffffffff909116815260200160405180910390f35b34156100ea57600080fd5b6100f26101f3565b604051600160a060020a03909116815260200160405180910390f35b341561011957600080fd5b610121610202565b604051901515815260200160405180910390f35b341561014057600080fd5b6100c261025f565b341561015357600080fd5b61015b61027b565b6040516fffffffffffffffffffffffffffffffff909116815260200160405180910390f35b341561018b57600080fd5b61009d60043515156102a7565b34156101a357600080fd5b6100f261031f565b34156101b657600080fd5b61012161032e565b34156101c957600080fd5b610121600160a060020a036004351661037d565b60025481565b60035467ffffffffffffffff1681565b600154600160a060020a031681565b60015460009033600160a060020a0390811691161461022057600080fd5b600154600160a060020a039081169030163180156108fc0290604051600060405180830381858888f19350505050151561025957600080fd5b50600190565b60035468010000000000000000900467ffffffffffffffff1681565b60035470010000000000000000000000000000000090046fffffffffffffffffffffffffffffffff1681565b60015460009033600160a060020a039081169116146102c557600080fd5b600160045460ff1660038111156102d857fe5b146102e257600080fd5b81156102fa576004805460ff19166002179055610308565b6004805460ff191660031790555b60045460ff16600381111561031957fe5b92915050565b600054600160a060020a031681565b60015460009033600160a060020a0390811691161461034c57600080fd5b600060045460ff16600381111561035f57fe5b1461036957600080fd5b506004805460ff1916600190811790915590565b600154600090819033600160a060020a0390811691161461039d57600080fd5b506001548290600160a060020a038083169163a9059cbb9116826370a082313060006040516020015260405160e060020a63ffffffff8416028152600160a060020a039091166004820152602401602060405180830381600087803b151561040457600080fd5b6102c65a03f1151561041557600080fd5b5050506040518051905060006040516020015260405160e060020a63ffffffff8516028152600160a060020a0390921660048301526024820152604401602060405180830381600087803b151561046b57600080fd5b6102c65a03f1151561047c57600080fd5b50505060405180515060019493505050505600a165627a7a723058206de916faa93fff711ca90b69794bd1b6ac3727803ef89a0aaa4d9a4631e14e980029",
  "source": "pragma solidity ^0.4.16;\n\nimport \"./ERC20.sol\";\nimport \"./Government.sol\";\nimport \"./Wallet.sol\";\n\ncontract Immigrant {\n\t// need to generate new contract address\n\t// Immigrant's wallet address\n\taddress public immigrantWallet;\n\n\taddress public government;\n\tbytes32 public dataHash;\n\n    // Additional demographic info\n    uint64 public age;\n    uint64 public occupation;\n    uint128 public income;\n\n\tenum ImmigrationStatus { registered, invited, accepted, rejected }\n\n\t// Current immigrant status in the process\n    ImmigrationStatus status;\n\n\tfunction Immigrant(address _immigrantWallet, uint64 _occupation, uint64 _age, uint128 _income, bytes32 _dataHash) public {\n        government = msg.sender;\n\t\timmigrantWallet = _immigrantWallet;\n\n        occupation = _occupation;\n\t\tage = _age;\n\t\tincome = _income;\n\t\tdataHash = _dataHash;\n        status = ImmigrationStatus.registered;\n\t}\n\n\tfunction() public payable {\n\t\t// Make a contribution to the income tax fund for msg.sender\n\t}\n\n\tmodifier onlyGov {\n\t    require(msg.sender == government);\n\t    _;\n\t}\n\n    function invite() public onlyGov returns (bool success) {\n        require(status == ImmigrationStatus.registered);\n        status = ImmigrationStatus.invited;\n        return true;\n    }\n\n\tfunction makeDecision(bool accepted)  public onlyGov returns (uint _status) {\n        require(status == ImmigrationStatus.invited);\n\n\t\tif (accepted) {\n\t\t\tstatus = ImmigrationStatus.accepted;\n\t\t} else {\n\t\t\tstatus = ImmigrationStatus.rejected;\n\t\t}\n\n\t\treturn uint(status);\n\t}\n\n\tfunction emptyAccountEth()  public onlyGov returns (bool) {\n\t   government.transfer(this.balance);\n       return true;\n\t}\n\n    function emptyAccountToken(address tokenAddress)  public onlyGov returns (bool) {\n        ERC20 token = ERC20(tokenAddress);\n        token.transfer(government, token.balanceOf(this));\n        return true;\n\t}\n\n}\n",
  "sourcePath": "/Users/salmahmo/projects/citethzen/contracts/Immigrant.sol",
  "schemaVersion": "1.0.0",
  "updatedAt": "2017-10-14T18:48:27.736Z"
}