{
  "contractName": "Immigrant",
  "abi": [
    {
      "constant": true,
      "inputs": [],
      "name": "immigrantAddress",
      "outputs": [
        {
          "name": "",
          "type": "address"
        }
      ],
      "payable": false,
      "stateMutability": "view",
      "type": "function"
    },
    {
      "constant": false,
      "inputs": [],
      "name": "receiveGovernmentInvitation",
      "outputs": [
        {
          "name": "success",
          "type": "bool"
        }
      ],
      "payable": false,
      "stateMutability": "nonpayable",
      "type": "function"
    },
    {
      "constant": true,
      "inputs": [],
      "name": "dataHash",
      "outputs": [
        {
          "name": "",
          "type": "bytes32"
        }
      ],
      "payable": false,
      "stateMutability": "view",
      "type": "function"
    },
    {
      "constant": true,
      "inputs": [],
      "name": "status",
      "outputs": [
        {
          "name": "",
          "type": "uint8"
        }
      ],
      "payable": false,
      "stateMutability": "view",
      "type": "function"
    },
    {
      "constant": true,
      "inputs": [],
      "name": "age",
      "outputs": [
        {
          "name": "",
          "type": "uint64"
        }
      ],
      "payable": false,
      "stateMutability": "view",
      "type": "function"
    },
    {
      "constant": true,
      "inputs": [],
      "name": "government",
      "outputs": [
        {
          "name": "",
          "type": "address"
        }
      ],
      "payable": false,
      "stateMutability": "view",
      "type": "function"
    },
    {
      "constant": false,
      "inputs": [],
      "name": "emptyAccountEth",
      "outputs": [
        {
          "name": "",
          "type": "bool"
        }
      ],
      "payable": false,
      "stateMutability": "nonpayable",
      "type": "function"
    },
    {
      "constant": false,
      "inputs": [
        {
          "name": "withdrawTo",
          "type": "address"
        }
      ],
      "name": "withdrawETH",
      "outputs": [
        {
          "name": "",
          "type": "bool"
        }
      ],
      "payable": false,
      "stateMutability": "nonpayable",
      "type": "function"
    },
    {
      "constant": true,
      "inputs": [],
      "name": "occupation",
      "outputs": [
        {
          "name": "",
          "type": "uint64"
        }
      ],
      "payable": false,
      "stateMutability": "view",
      "type": "function"
    },
    {
      "constant": true,
      "inputs": [],
      "name": "income",
      "outputs": [
        {
          "name": "",
          "type": "uint128"
        }
      ],
      "payable": false,
      "stateMutability": "view",
      "type": "function"
    },
    {
      "constant": true,
      "inputs": [],
      "name": "owner",
      "outputs": [
        {
          "name": "",
          "type": "address"
        }
      ],
      "payable": false,
      "stateMutability": "view",
      "type": "function"
    },
    {
      "constant": false,
      "inputs": [
        {
          "name": "tokenAddress",
          "type": "address"
        },
        {
          "name": "withdrawTo",
          "type": "address"
        }
      ],
      "name": "withdrawTokens",
      "outputs": [],
      "payable": false,
      "stateMutability": "nonpayable",
      "type": "function"
    },
    {
      "constant": false,
      "inputs": [
        {
          "name": "accepted",
          "type": "bool"
        }
      ],
      "name": "makeDecision",
      "outputs": [
        {
          "name": "_status",
          "type": "uint256"
        }
      ],
      "payable": false,
      "stateMutability": "nonpayable",
      "type": "function"
    },
    {
      "constant": false,
      "inputs": [
        {
          "name": "tokenAddress",
          "type": "address"
        }
      ],
      "name": "emptyAccountToken",
      "outputs": [
        {
          "name": "",
          "type": "bool"
        }
      ],
      "payable": false,
      "stateMutability": "nonpayable",
      "type": "function"
    },
    {
      "inputs": [
        {
          "name": "_immigrantAddress",
          "type": "address"
        },
        {
          "name": "_occupation",
          "type": "uint64"
        },
        {
          "name": "_age",
          "type": "uint64"
        },
        {
          "name": "_income",
          "type": "uint128"
        },
        {
          "name": "_dataHash",
          "type": "bytes32"
        }
      ],
      "payable": false,
      "stateMutability": "nonpayable",
      "type": "constructor"
    },
    {
      "payable": true,
      "stateMutability": "payable",
      "type": "fallback"
    },
    {
      "anonymous": false,
      "inputs": [
        {
          "indexed": false,
          "name": "immigrant",
          "type": "address"
        },
        {
          "indexed": false,
          "name": "amount",
          "type": "uint256"
        }
      ],
      "name": "LogContribution",
      "type": "event"
    }
  ],
  "bytecode": "0x6060604052341561000f57600080fd5b60405160a0806107d9833981016040528080519190602001805191906020018051919060200180519190602001805160008054600160a060020a0319908116600160a060020a03998a16908117835560028054831633909b169a909a179099556001805490911690981790975560048054604060020a608060020a0319166801000000000000000067ffffffffffffffff988916021767ffffffffffffffff191695909616949094176001608060020a0390811670010000000000000000000000000000000094909116939093029290921790935550600355506005805460ff191690556106d690819061010390396000f300606060405236156100b45763ffffffff60e060020a60003504166309ce19d981146100fa57806317c6d1e0146101295780631b3012a314610150578063200d2ed214610175578063262a9dff146101ac5780632672f526146101dc5780633ea0fbcf146101ef578063690d8320146102025780636f5ad9991461022157806388b45046146102345780638da5cb5b1461026c578063a522ad251461027f578063dfa1ba35146102a6578063f9da1f25146102be575b7f370510fa7e8c74204b8d2fd52b7a0837e535ea0c1491fd4e13730ce825e405243334604051600160a060020a03909216825260208201526040908101905180910390a1005b341561010557600080fd5b61010d6102dd565b604051600160a060020a03909116815260200160405180910390f35b341561013457600080fd5b61013c6102ec565b604051901515815260200160405180910390f35b341561015b57600080fd5b61016361033b565b60405190815260200160405180910390f35b341561018057600080fd5b610188610341565b6040518082600381111561019857fe5b60ff16815260200191505060405180910390f35b34156101b757600080fd5b6101bf61034a565b60405167ffffffffffffffff909116815260200160405180910390f35b34156101e757600080fd5b61010d61035a565b34156101fa57600080fd5b61013c610369565b341561020d57600080fd5b61013c600160a060020a03600435166103c6565b341561022c57600080fd5b6101bf610427565b341561023f57600080fd5b610247610443565b6040516fffffffffffffffffffffffffffffffff909116815260200160405180910390f35b341561027757600080fd5b61010d61046f565b341561028a57600080fd5b6102a4600160a060020a036004358116906024351661047e565b005b34156102b157600080fd5b6101636004351515610581565b34156102c957600080fd5b61013c600160a060020a03600435166105dc565b600154600160a060020a031681565b60025460009033600160a060020a0390811691161461030a57600080fd5b600060055460ff16600381111561031d57fe5b1461032757600080fd5b506005805460ff1916600190811790915590565b60035481565b60055460ff1681565b60045467ffffffffffffffff1681565b600254600160a060020a031681565b60025460009033600160a060020a0390811691161461038757600080fd5b600254600160a060020a039081169030163180156108fc0290604051600060405180830381858888f1935050505015156103c057600080fd5b50600190565b6000805433600160a060020a039081169116146103e257600080fd5b81600160a060020a03166108fc30600160a060020a0316319081150290604051600060405180830381858888f19350505050151561041f57600080fd5b506001919050565b60045468010000000000000000900467ffffffffffffffff1681565b60045470010000000000000000000000000000000090046fffffffffffffffffffffffffffffffff1681565b600054600160a060020a031681565b6000805433600160a060020a0390811691161461049a57600080fd5b5081600160a060020a03811663a9059cbb83826370a082313060006040516020015260405160e060020a63ffffffff8416028152600160a060020a039091166004820152602401602060405180830381600087803b15156104fa57600080fd5b6102c65a03f1151561050b57600080fd5b5050506040518051905060006040516020015260405160e060020a63ffffffff8516028152600160a060020a0390921660048301526024820152604401602060405180830381600087803b151561056157600080fd5b6102c65a03f1151561057257600080fd5b50505060405180515050505050565b60025460009033600160a060020a0390811691161461059f57600080fd5b81156105b7576005805460ff191660021790556105c5565b6005805460ff191660031790555b60055460ff1660038111156105d657fe5b92915050565b600254600090819033600160a060020a039081169116146105fc57600080fd5b506002548290600160a060020a03908116906108fc9083166370a082313060006040516020015260405160e060020a63ffffffff8416028152600160a060020a039091166004820152602401602060405180830381600087803b151561066157600080fd5b6102c65a03f1151561067257600080fd5b505050604051805190509081150290604051600060405180830381858888f1935050505015156106a157600080fd5b506001929150505600a165627a7a72305820bb89a52b4a0519eac085669ef79607460c50bc97a3808cd7436098433868639d0029",
  "source": "pragma solidity ^0.4.16;\n\nimport \"./ERC20.sol\";\nimport \"./Government.sol\";\nimport \"./Wallet.sol\";\n\ncontract Immigrant is Wallet {\n\t// need to generate new contract address\n\t// Immigrant's wallet address\n\taddress public immigrantAddress;\n\n\taddress public government;\n\tbytes32 public dataHash;\n\n\tenum Occupation { doctor, lawyer, migrantWorker, laborer }\n    // Additional demographic info\n    uint64 public age;\n    uint64 public occupation;\n    uint128 public income;\n\n\tenum ImmigrationStatus { registered, invited, accepted, rejected }\n\n\tevent LogContribution(address immigrant, uint amount);\n\n\t// Current immigrant status in the process\n  ImmigrationStatus public status;\n\n\tfunction Immigrant(address _immigrantAddress, uint64 _occupation, uint64 _age, uint128 _income, bytes32 _dataHash) Wallet(_immigrantAddress) public {\n        government = msg.sender;\n        immigrantAddress = _immigrantAddress;\n\n        occupation = _occupation;\n\t\tage = _age;\n\t\tincome = _income;\n\t\tdataHash = _dataHash;\n        status = ImmigrationStatus.registered;\n\t}\n\n\tfunction() public payable {\n\t\t// Make a contribution to the income tax fund for msg.sender\n\t\tLogContribution(msg.sender, msg.value);\n\t}\n\n\tmodifier onlyGov {\n\t    require(msg.sender == government);\n\t    _;\n\t}\n\n\tfunction receiveGovernmentInvitation() public onlyGov returns (bool success) {\n\t\trequire(status == ImmigrationStatus.registered);\n\t\tstatus = ImmigrationStatus.invited;\n\t\treturn true;\n\t}\n\n\tfunction makeDecision(bool accepted) onlyGov public returns (uint _status) {\n\t\tif (accepted) {\n\t\t\tstatus = ImmigrationStatus.accepted;\n\t\t} else {\n\t\t\tstatus = ImmigrationStatus.rejected;\n\t\t}\n\n\t\treturn uint(status);\n\t}\n\n\tfunction emptyAccountEth()  public onlyGov returns (bool) {\n\t   government.transfer(this.balance);\n       return true;\n\t}\n\n    function emptyAccountToken(address tokenAddress)  public onlyGov returns (bool) {\n        ERC20 token = ERC20(tokenAddress);\n        government.transfer(token.balanceOf(this));\n        return true;\n\t}\n\n}\n",
  "sourcePath": "/Users/salmahmo/projects/citethzen/contracts/Immigrant.sol",
  "schemaVersion": "1.0.0",
  "updatedAt": "2017-10-14T23:48:20.630Z"
}