{
  "contractName": "Immigrant",
  "abi": [
    {
      "constant": true,
      "inputs": [],
      "name": "dataHash",
      "outputs": [
        {
          "name": "",
          "type": "bytes32"
        }
      ],
      "payable": false,
      "stateMutability": "view",
      "type": "function"
    },
    {
      "constant": true,
      "inputs": [],
      "name": "age",
      "outputs": [
        {
          "name": "",
          "type": "uint64"
        }
      ],
      "payable": false,
      "stateMutability": "view",
      "type": "function"
    },
    {
      "constant": true,
      "inputs": [],
      "name": "government",
      "outputs": [
        {
          "name": "",
          "type": "address"
        }
      ],
      "payable": false,
      "stateMutability": "view",
      "type": "function"
    },
    {
      "constant": false,
      "inputs": [],
      "name": "emptyAccountEth",
      "outputs": [
        {
          "name": "",
          "type": "bool"
        }
      ],
      "payable": false,
      "stateMutability": "nonpayable",
      "type": "function"
    },
    {
      "constant": true,
      "inputs": [],
      "name": "occupation",
      "outputs": [
        {
          "name": "",
          "type": "uint64"
        }
      ],
      "payable": false,
      "stateMutability": "view",
      "type": "function"
    },
    {
      "constant": true,
      "inputs": [],
      "name": "income",
      "outputs": [
        {
          "name": "",
          "type": "uint128"
        }
      ],
      "payable": false,
      "stateMutability": "view",
      "type": "function"
    },
    {
      "constant": false,
      "inputs": [
        {
          "name": "accepted",
          "type": "bool"
        }
      ],
      "name": "makeDecision",
      "outputs": [
        {
          "name": "_status",
          "type": "uint256"
        }
      ],
      "payable": false,
      "stateMutability": "nonpayable",
      "type": "function"
    },
    {
      "constant": true,
      "inputs": [],
      "name": "immigrantWallet",
      "outputs": [
        {
          "name": "",
          "type": "address"
        }
      ],
      "payable": false,
      "stateMutability": "view",
      "type": "function"
    },
    {
      "constant": false,
      "inputs": [],
      "name": "invite",
      "outputs": [
        {
          "name": "success",
          "type": "bool"
        }
      ],
      "payable": false,
      "stateMutability": "nonpayable",
      "type": "function"
    },
    {
      "constant": false,
      "inputs": [
        {
          "name": "tokenAddress",
          "type": "address"
        }
      ],
      "name": "emptyAccountToken",
      "outputs": [
        {
          "name": "",
          "type": "bool"
        }
      ],
      "payable": false,
      "stateMutability": "nonpayable",
      "type": "function"
    },
    {
      "inputs": [
        {
          "name": "_immigrantWallet",
          "type": "address"
        },
        {
          "name": "_occupation",
          "type": "uint64"
        },
        {
          "name": "_age",
          "type": "uint64"
        },
        {
          "name": "_income",
          "type": "uint128"
        },
        {
          "name": "_dataHash",
          "type": "bytes32"
        }
      ],
      "payable": false,
      "stateMutability": "nonpayable",
      "type": "constructor"
    },
    {
      "payable": true,
      "stateMutability": "payable",
      "type": "fallback"
    }
  ],
  "bytecode": "0x6060604052341561000f57600080fd5b60405160a0806105a2833981016040528080519190602001805191906020018051919060200180519190602001805160018054600160a060020a031990811633600160a060020a0390811691909117909255600080549091169890911697909717875560038054604060020a608060020a0319166801000000000000000067ffffffffffffffff988916021767ffffffffffffffff191695909616949094176001608060020a0390811670010000000000000000000000000000000094909116939093029290921790935550600255506004805460ff191690556104a99081906100f990396000f300606060405236156100a15763ffffffff7c01000000000000000000000000000000000000000000000000000000006000350416631b3012a381146100a3578063262a9dff146100c85780632672f526146100f85780633ea0fbcf146101275780636f5ad9991461014e57806388b4504614610161578063dfa1ba3514610199578063e6704dc4146101b1578063eec30bfd146101c4578063f9da1f25146101d7575b005b34156100ae57600080fd5b6100b66101f6565b60405190815260200160405180910390f35b34156100d357600080fd5b6100db6101fc565b60405167ffffffffffffffff909116815260200160405180910390f35b341561010357600080fd5b61010b61020c565b604051600160a060020a03909116815260200160405180910390f35b341561013257600080fd5b61013a61021b565b604051901515815260200160405180910390f35b341561015957600080fd5b6100db610278565b341561016c57600080fd5b610174610294565b6040516fffffffffffffffffffffffffffffffff909116815260200160405180910390f35b34156101a457600080fd5b6100b660043515156102c0565b34156101bc57600080fd5b61010b610338565b34156101cf57600080fd5b61013a610347565b34156101e257600080fd5b61013a600160a060020a0360043516610396565b60025481565b60035467ffffffffffffffff1681565b600154600160a060020a031681565b60015460009033600160a060020a0390811691161461023957600080fd5b600154600160a060020a039081169030163180156108fc0290604051600060405180830381858888f19350505050151561027257600080fd5b50600190565b60035468010000000000000000900467ffffffffffffffff1681565b60035470010000000000000000000000000000000090046fffffffffffffffffffffffffffffffff1681565b60015460009033600160a060020a039081169116146102de57600080fd5b600160045460ff1660038111156102f157fe5b146102fb57600080fd5b8115610313576004805460ff19166002179055610321565b6004805460ff191660031790555b60045460ff16600381111561033257fe5b92915050565b600054600160a060020a031681565b60015460009033600160a060020a0390811691161461036557600080fd5b600060045460ff16600381111561037857fe5b1461038257600080fd5b506004805460ff1916600190811790915590565b600154600090819033600160a060020a039081169116146103b657600080fd5b506001548290600160a060020a03908116906108fc9083166370a08231306000604051602001526040517c010000000000000000000000000000000000000000000000000000000063ffffffff8416028152600160a060020a039091166004820152602401602060405180830381600087803b151561043457600080fd5b6102c65a03f1151561044557600080fd5b505050604051805190509081150290604051600060405180830381858888f19350505050151561047457600080fd5b506001929150505600a165627a7a723058205e33be2847cd198f22fae90324c7e8752ecf687c4c92fd8466d82a5b1d94325a0029",
  "source": "pragma solidity ^0.4.16;\n\nimport \"./ERC20.sol\";\nimport \"./Government.sol\";\nimport \"./Wallet.sol\";\n\ncontract Immigrant {\n\t// need to generate new contract address\n\t// Immigrant's wallet address\n\taddress public immigrantWallet;\n\n\taddress public government;\n\tbytes32 public dataHash;\n\n\tenum Occupation { doctor, lawyer, migrantWorker, laborer }\n    // Additional demographic info\n    uint64 public age;\n    uint64 public occupation;\n    uint128 public income;\n\n\tenum ImmigrationStatus { registered, invited, accepted, rejected }\n\n\t// Current immigrant status in the process\n    ImmigrationStatus status;\n\n\tfunction Immigrant(address _immigrantWallet, uint64 _occupation, uint64 _age, uint128 _income, bytes32 _dataHash) public {\n        government = msg.sender;\n\t\timmigrantWallet = _immigrantWallet;\n\n        occupation = _occupation;\n\t\tage = _age;\n\t\tincome = _income;\n\t\tdataHash = _dataHash;\n        status = ImmigrationStatus.registered;\n\t}\n\n\tfunction() public payable {\n\t\t// Make a contribution to the income tax fund for msg.sender\n\t}\n\n\tmodifier onlyGov {\n\t    require(msg.sender == government);\n\t    _;\n\t}\n\n    function invite() public onlyGov returns (bool success) {\n        require(status == ImmigrationStatus.registered);\n        status = ImmigrationStatus.invited;\n        return true;\n    }\n\n\tfunction makeDecision(bool accepted)  public onlyGov returns (uint _status) {\n        require(status == ImmigrationStatus.invited);\n\n\t\tif (accepted) {\n\t\t\tstatus = ImmigrationStatus.accepted;\n\t\t} else {\n\t\t\tstatus = ImmigrationStatus.rejected;\n\t\t}\n\n\t\treturn uint(status);\n\t}\n\n\tfunction emptyAccountEth()  public onlyGov returns (bool) {\n\t   government.transfer(this.balance);\n       return true;\n\t}\n\n    function emptyAccountToken(address tokenAddress)  public onlyGov returns (bool) {\n        ERC20 token = ERC20(tokenAddress);\n        government.transfer(token.balanceOf(this));\n        return true;\n\t}\n\n}\n",
  "sourcePath": "/Users/salmahmo/projects/citethzen/contracts/Immigrant.sol",
  "schemaVersion": "1.0.0",
  "updatedAt": "2017-10-14T19:02:03.827Z"
}