{
  "contractName": "Wallet",
  "abi": [
    {
      "constant": false,
      "inputs": [
        {
          "name": "withdrawTo",
          "type": "address"
        }
      ],
      "name": "withdrawETH",
      "outputs": [
        {
          "name": "",
          "type": "bool"
        }
      ],
      "payable": false,
      "stateMutability": "nonpayable",
      "type": "function"
    },
    {
      "constant": true,
      "inputs": [],
      "name": "owner",
      "outputs": [
        {
          "name": "",
          "type": "address"
        }
      ],
      "payable": false,
      "stateMutability": "view",
      "type": "function"
    },
    {
      "constant": false,
      "inputs": [
        {
          "name": "tokenAddress",
          "type": "address"
        },
        {
          "name": "withdrawTo",
          "type": "address"
        }
      ],
      "name": "withdrawTokens",
      "outputs": [],
      "payable": false,
      "stateMutability": "nonpayable",
      "type": "function"
    },
    {
      "inputs": [
        {
          "name": "_owner",
          "type": "address"
        }
      ],
      "payable": false,
      "stateMutability": "nonpayable",
      "type": "constructor"
    }
  ],
  "bytecode": "0x6060604052341561000f57600080fd5b6040516020806102b58339810160405280805160008054600160a060020a03909216600160a060020a03199092169190911790555050610261806100546000396000f300606060405263ffffffff60e060020a600035041663690d832081146100395780638da5cb5b1461006c578063a522ad251461009b57600080fd5b341561004457600080fd5b610058600160a060020a03600435166100c2565b604051901515815260200160405180910390f35b341561007757600080fd5b61007f610123565b604051600160a060020a03909116815260200160405180910390f35b34156100a657600080fd5b6100c0600160a060020a0360043581169060243516610132565b005b6000805433600160a060020a039081169116146100de57600080fd5b81600160a060020a03166108fc30600160a060020a0316319081150290604051600060405180830381858888f19350505050151561011b57600080fd5b506001919050565b600054600160a060020a031681565b6000805433600160a060020a0390811691161461014e57600080fd5b5081600160a060020a03811663a9059cbb83826370a082313060006040516020015260405160e060020a63ffffffff8416028152600160a060020a039091166004820152602401602060405180830381600087803b15156101ae57600080fd5b6102c65a03f115156101bf57600080fd5b5050506040518051905060006040516020015260405160e060020a63ffffffff8516028152600160a060020a0390921660048301526024820152604401602060405180830381600087803b151561021557600080fd5b6102c65a03f1151561022657600080fd5b505050604051805150505050505600a165627a7a723058209531eda9e44059529578535e6caf3010e2cee908dd01b11fa070909fa76857c30029",
  "source": "pragma solidity ^0.4.16;\n\n\nimport \"./ERC20.sol\";\nimport \"./Immigrant.sol\";\nimport \"./Government.sol\";\n\n\ncontract Wallet {\n    address public owner;\n\n    function Wallet(address _owner) public {\n        owner = _owner;\n    }\n\n    modifier onlyOwner {\n        require(msg.sender == owner);\n        _;\n    }\n\n    function withdrawETH(address withdrawTo) public onlyOwner returns (bool) {\n        withdrawTo.transfer(this.balance);\n        return true;\n    }\n\n    function withdrawTokens(address tokenAddress, address withdrawTo) public onlyOwner {\n        ERC20 token = ERC20(tokenAddress);\n        token.transfer(withdrawTo, token.balanceOf(this));\n    }\n}\n",
  "sourcePath": "/Users/salmahmo/projects/citethzen/contracts/Wallet.sol",
  "schemaVersion": "1.0.0",
  "updatedAt": "2017-10-14T18:48:27.736Z"
}